:020000040800F2
:1000000068490020DD010008A70E0008650E000801
:10001000A30E0008CB080008331A000800000000F7
:100020000000000000000000000000004501000882
:10003000CF0800080000000089010008752E0008A4
:10004000F7010008F7010008F7010008F7010008B0
:10005000F7010008F7010008FF0B0008F70100088E
:10006000F7010008F7010008F7010008F701000890
:10007000F7010008F7010008F7010008F701000880
:10008000F7010008F7010008F7010008F701000870
:10009000F7010008F7010008F7010008F701000860
:1000A000F7010008F7010008F7010008AD12000889
:1000B000F7010008F7010008F7010008F701000840
:1000C000F7010008F7010008F7010008F701000830
:1000D000F701000855180008F7010008F7010008AB
:1000E000F7010008F7010008F7010008F701000810
:1000F000F7010008F7010008F7010008F701000800
:10010000F7010008F7010008F7010008F7010008EF
:10011000F7010008F701000891130008F701000833
:10012000F7010008F7010008F7010008F7010008CF
:10013000DFF80CD000F0F4FA004800474D25000825
:1001400068490020224B19680868B0E8F00F80F376
:100150000988BFF36F8F4FF0000080F311884EF0D5
:100160000D0E70470000000006480068006880F32C
:10017000088862B661B6BFF34F8FBFF36F8F00DFA1
:1001800000BF00BF08ED00E0EFF30980BFF36F8F01
:100190000F4B1A6820E9F00F106008B54FF01F00F0
:1001A00080F31188BFF34F8FBFF36F8F02F018FEFB
:1001B0004FF0000080F31188BDE808401968086816
:1001C000B0E8F00F80F30988BFF36F8F704700BF6E
:1001D00044000020EFF30580704700000648804788
:1001E00006480047FEE7FEE7FEE7FEE7FEE7FEE71C
:1001F000FEE7FEE7FEE7FEE73511000831010008E3
:1002000030B480EA010202F0004530F0004221F0F3
:10021000004013D090B1C30DD40DC2F31601C0F34A
:100220001600E41A41F4000140F400027D349142CA
:1002300001D3641C00E04900002C02DA30BC00202D
:1002400070474FF400000023914201D3891A034301
:1002500040084FEA4101F7D151B1914202D14FF02C
:10026000004105E002D24FF0010101E06FF0010111
:1002700003EBC450284430BC00F063B8C10F80EADF
:10028000E0700844CA079623002100F063B800F02C
:10029000004230F000400AD0C10D01F56071C0F39A
:1002A000160042EA0151C20840071143704700207E
:1002B0000146704730B50B4601460020202201243C
:1002C00009E021FA02F59D4205D303FA02F5491B24
:1002D00004FA02F52844151EA2F10102F1DC30BD3A
:1002E0002DE9F05F0546002092469B46884606466B
:1002F000814640241BE0284641464746224600F0FE
:1003000030FA53465A46C01A914110D31146184646
:10031000224600F017FA2D1A67EB01084F462246D5
:100320000120002100F00EFA17EB00094E41201EBB
:10033000A4F10104DFDC484631462A464346BDE8C5
:10034000F09F0029A8BF7047401C490008BF20F05B
:100350000100704710B4B0FA80FC00FA0CF050EACB
:10036000010404BF10BC704749B1CCF1200421FA4C
:1003700004F411FA0CF118BF012121430843A3EB47
:100380000C01CB1D4FEA00614FEA102042BF002054
:1003900010BC704700EBC35010440029A4BF10BC30
:1003A0007047401C490008BF20F0010010BC704796
:1003B0002DE9FE4F804681EA0300C00F0C460090F5
:1003C00021F0004123F00045B8EB0200A94105D21D
:1003D0004046214690461C460B46024623F000400C
:1003E000104347D0270DC7F30A00C3F30A51029008
:1003F000401A019040286BDAC3F3130040F4801BCD
:100400000098924620B10023D2EB030A63EB0B0B5A
:1004100001985946C0F14002504600F093F9064653
:100420000D4650465946019A00F0ABF910EB080012
:100430006141002487EA115284EAE7731A4340D0ED
:10044000009A62B3019A012A4FEA075215DC001B99
:1004500061EB02014FF0004202EA0752CDE900428F
:10046000001C41F5801132462B4600F0ABF903B079
:10047000BDE8F08F40462146F9E7001B61EB020121
:10048000001C41F5801300185B412018A2F50017ED
:1004900047EB030140EAD570B6196D4111E06D08D4
:1004A0004FEA360645EAC0754FEA0752001B61EB7A
:1004B0000201001C41F5801149084FEA3000001983
:1004C000514132462B4603B0BDE8F04F00F06BB906
:1004D0000098012240000023D0EB020263EBE0739E
:1004E000009821464FEAE074B8EB000061EB04018C
:1004F000E9E783F000435BE781F0004158E72DE92D
:10050000FE4F81EA030404F0004421F0004100940E
:100510004FF0000B23F0004350EA01045ED052EA92
:1005200003045BD0C3F30A54C1F30A552C44A4F26C
:10053000F3340194A0FB0254C1F3130141F4801180
:10054000C3F3130343F4801301FB024400FB034E87
:10055000840A970A44EA815447EA8357A4FB076850
:1005600002958D0A05FB07854FEA932C04FB0C547A
:100570002705029D4FEA065847EA1637B5EB0805EE
:100580006EEB070C870E920E47EA811742EA831240
:10059000A7FB0201B6EB0B0164EB00042B0D43EA51
:1005A0000C335E1844EB1C50DA465146E7FB02015F
:1005B000C5F313044FEA0B3343EA14534FEA0432F2
:1005C000019C43EA0603A4F10C040294009CCDE9CB
:1005D00000B400F0F7F803B0BDE8F08F002001464A
:1005E000F9E72DE9F04D81EA030404F0004B21F016
:1005F000004514464FF0000A23F0004150EA05027E
:1006000020D054EA01021DD0C5F30A570246C5F3B3
:100610001303C1F31300C1F30A5640F4801543F4E9
:100620008013A7EB0608101BD64608F2FD3873EBC3
:10063000050002D308F1010801E092185B41B8F10E
:10064000000F03DA00200146BDE8F08D00204FF4D2
:100650008011064684460EE0171B73EB050705D391
:10066000121B63EB050306434CEA010C49084FEAF1
:10067000300092185B4150EA0107EDD152EA0300C5
:1006800012D082EA040083EA0501084305D0101B5A
:10069000AB4106D20122002306E000224FF00043C6
:1006A00002E06FF0010253101AEB06004CEB085108
:1006B00010EB0A0041EB0B01BDE8F04D00F073B800
:1006C000C1F30A52C1F3130140F2FF3341F4801128
:1006D0009A4202DA00200146704740F233439A42C0
:1006E000A2F2334202DC524200F03BB800F02AB8DA
:1006F00030B5041E71F1000404DB4FF000444042A9
:1007000064EB0101141E73F1000405DB1C464FF07D
:100710000043524263EB0403994208BF904230BD4C
:10072000064C074D06E0E06840F0010394E807003E
:1007300098471034AC42F6D3FFF7FEFC4431000872
:1007400064310008202A04DB203A00FA02F100207C
:1007500070479140C2F1200320FA03F319439040FF
:100760007047202A04DB203A21FA02F0002170476A
:1007700021FA02F3D040C2F1200291400843194609
:100780007047202A06DBCB17203A41FA02F043EAF1
:10079000E07306E041FA02F3D040C2F1200291403A
:1007A00008431946704710B5141E73F1000408DAA7
:1007B000401C41F1000192185B411A4301D120F025
:1007C000010010BD2DE9F04D92469B4611B1B1FAE2
:1007D00081F202E0B0FA80F220329046FFF7B2FFD9
:1007E00004460F4640EA0A0041EA0B0153465A46C6
:1007F000084313D0114653EA010019D0C8F1400252
:100800005046FFF7AEFF05460E4650465946424653
:10081000FFF798FF084305D0012004E02046394641
:10082000BDE8F08D0020054346EAE0762C433743CF
:100830000A986305E40AA0EB08000022FD0A44EAD6
:1008400047540A3002D500200146E9E70105101996
:100850006941DDE9084500196941BDE8F04DA2E7AD
:100860000EB50121102000F061FB40F2E730ADF839
:1008700004004720ADF800006946084800F098FFE2
:100880000121064800F098FD01221146034800F0BE
:10089000BCFD0121014800F095FD0EBD0010004097
:1008A00008B54FF4E06000F037FB36208DF800000B
:1008B00000208DF8010003208DF8020001208DF842
:1008C0000300684600F0F0FA08BD00BFFEE770477D
:1008D00010B501F075FD01F019FD01F02BFD10BD03
:1008E00010B5FFF7DDFFFFF7BBFF10BD08B5012115
:1008F000102000F02BFB0120ADF8000010208DF837
:10090000030003208DF802006946044800F014FA41
:100910000121024800F09BFA08BD000000100140D0
:100920001CB50121084600F011FB0021084600F02B
:10093000E3F90120009000208DF8040008208DF8D4
:10094000050001208DF80600684600F08BF91CBDFB
:1009500010B504220121044800F05AF800F006F80E
:10096000FFF7DEFF10BD00000008014008B54FF49E
:10097000C06000F0D1FA06208DF8000001208DF84B
:1009800001008DF802008DF80300684600F08CFA33
:1009900008BD00002DE9F84306460F461446984668
:1009A0004FF00009002500BF0BE0184850F8350053
:1009B000B04205D1154800EBC500D0F8049002E024
:1009C0006D1C072DF1D300BF0121484600F0BEFA8F
:1009D000ADF800708DF8034003208DF802006946E1
:1009E000304600F0A9F9142C01D0102C0BD1B8F12D
:1009F000000F04D03946304600F02BFA03E03946A8
:100A0000304600F024FABDE8F88300000C310008FD
:100A100070B504460D461646002332462946204648
:100A2000FFF7B8FF70BD2DE9F04104460D461646AC
:100A30001F463B46324629462046FFF7ABFFBDE83E
:100A4000F08110B501F0E4FC01F02CFD10BD0000B8
:100A500008B50121882000F079FA0120ADF80000E6
:100A600010208DF8030003208DF80200694610481D
:100A700000F062F98020ADF8000069460D4800F0F2
:100A80005BF94FF48070ADF800006946094800F04A
:100A900053F90121064800F0DCF98021054800F0F7
:100AA000D8F94FF48071034800F0D3F908BD000075
:100AB000000C0140001C014020B1012809D002288F
:100AC00015D10DE00B49096881F00101094A116057
:100AD0000EE00949096881F08001074A116007E0CA
:100AE0000549096881F48071034A116000E000BF84
:100AF00000BF70470C0C01400C1C0140F0B50346D0
:100B0000174800684FF47A71B0FBF1F000FB03F472
:100B10002146B1F1807F01D301201DE021F07F400B
:100B2000401E4FF0E022506150170F22002807DAD4
:100B300015072F0E0B4D00F00F06361FAF5503E0C3
:100B400015072E0E084D2E5400BF00204FF0E02256
:100B5000906107201061002008B100BFFEE7F0BDE2
:100B60000000002018ED00E000E400E01FB50023C5
:100B700018224FF400711648FFF755FF04221102A6
:100B80001348FFF745FF0121880300F0DFF94FF418
:100B9000E13000900020ADF80400ADF80600ADF89B
:100BA0000800ADF80C000C20ADF80A0069460948B1
:100BB00000F0CAFE00F010F8012240F2255105486D
:100BC00000F09DFE0121034800F056FE1FBD00000D
:100BD000000801400038014008B54FF4A06000F063
:100BE0009BF925208DF8000001208DF801008DF87B
:100BF00002008DF80300684600F056F908BD10B5F4
:100C00000FE00020FFF758FF00F026F918B9012087
:100C100000F08AFA02E0002000F086FA012000F0DD
:100C200007F8012000F00AF80028EAD110BD000002
:100C3000014908607047000014040140014600208B
:100C40000022074B1B6803EA0102054B14331B68A3
:100C50000B4013B10AB1012000E0002070470000F2
:100C600000040140002123498279002A3AD00A4633
:100C7000126803689A430B461A600A1D12680368DB
:100C80009A430B1D1A60027911440A6803681A43DB
:100C90000A60184A0832126803689A43154B0833F1
:100CA0001A601A1D126803689A43124B0C331A60BB
:100CB0004279102A0ED11A1F126803681A430D4B8D
:100CC00008331A601A1D126803681A43094B0C3363
:100CD0001A600DE00749427911440A6803681A4313
:100CE0000A6005E0027911440A6803689A430A60C1
:100CF000704700000004014030B500228B071C0F34
:100D00000F2303FA04F20B4B8C1053F82430934357
:100D1000084C8D1044F8253023468C1053F82430AD
:100D20008C07240F00FA04F42343024C8D1044F87E
:100D3000253030BD080001402DE9F0410246002574
:100D40000026002000230024002791F803C00CF0A7
:100D50000F0591F803C00CF0100CBCF1000F03D08C
:100D600091F802C04CEA050591F800C0BCF1000FF3
:100D700031D0146800202BE04FF0010C0CFA00F386
:100D8000B1F800C00CEA03069E4220D183004FF068
:100D90000F0C0CFA03F7BC4305FA03FC4CEA0404FD
:100DA00091F803C0BCF1280F06D14FF0010C0CFAEA
:100DB00000FCC2F814C00AE091F803C0BCF1480F6F
:100DC00005D14FF0010C0CFA00FCC2F810C0401C19
:100DD0000828D1D31460B1F800C0BCF1FF0F34DD96
:100DE000546800202EE000F1080C4FF0010808FACA
:100DF0000CF3B1F800C00CEA03069E4221D1830037
:100E00004FF00F0C0CFA03F7BC4305FA03FC4CEA55
:100E1000040491F803C0BCF1280F05D100F1080CBF
:100E200008FA0CF8C2F8148091F803C0BCF1480F1E
:100E300007D100F1080C4FF0010808FA0CF8C2F8CD
:100E40001080401C0828CED35460BDE8F081416179
:100E5000704701617047000001480078704700004A
:100E60003400002000BFFEE710B500F006F800F0E7
:100E700017F800F001F810BD704710B50520FFF716
:100E80003DFEFFF7E5FDFFF731FDFFF761FDFFF7E1
:100E90006DFEFFF725FDFFF71BFDFFF7D2FD10BD2F
:100EA000704700BFFEE7704770B5002100230F2296
:100EB000C47804B3154C246804F4E064C4F5E06419
:100EC000210AC1F10403CA40447804FA03F184788A
:100ED0001440214309010E4C0678A155047804F012
:100EE0001F050124AC4005786D11AD0005F1E0252A
:100EF000C5F8004109E0047804F01F050124AC4066
:100F0000044D0678761145F8264070BD0CED00E0E2
:100F100000E400E080E100E002490143024A116080
:100F2000704700000000FA050CED00E029B1064A08
:100F3000D2690243044BDA6104E0034AD269824376
:100F4000014BDA61704700000010024029B1064AE7
:100F500092690243044B9A6104E0034A9269824316
:100F6000014B9A61704700000010024030B500212B
:100F70000022002400232D4D6D6805F00C0121B1E5
:100F8000042905D0082923D105E0294D056022E078
:100F9000274D05601FE0254D6D6805F47012234D47
:100FA0006D6805F48034022505EB92421CB9214D91
:100FB000554305600BE01D4D6D6805F400351DB10E
:100FC0001C4D5543056002E0194D5543056002E094
:100FD000174D056000BF00BF144D6D6805F0F001AE
:100FE0000909154D6B5C0568DD4045600F4D6D6866
:100FF00005F4E061090A104D6B5C4568DD408560D1
:101000000A4D6D6805F46051C90A0B4D6B5C45686B
:10101000DD40C560054D6D6805F44041890B074D05
:101020006B5CC568B5FBF3F5056130BD001002408F
:1010300000127A0000093D00140000202400002066
:1010400010B500F001F810BD0CB500200190009023
:101050003348006840F480303149086000BF3048B0
:10106000006800F4003000900198401C0190009846
:1010700018B90198B0F5A06FF1D12948006800F4C3
:10108000003010B10120009001E000200090009895
:10109000012843D12348006840F01000214908602E
:1010A0000846006820F0030008600846006840F029
:1010B000020008601A4840681949486008464068BC
:1010C00048600846406840F48060486008464068D0
:1010D00020F47C1048600846406840F4E8104860FE
:1010E0000846006840F08070086000BF0C48006847
:1010F00000F000700028F9D00948406820F0030093
:10110000074948600846406840F00200486000BF58
:101110000348406800F00C000828F9D10CBD00001D
:101120000010024000200240014908707047000092
:101130003400002010B51348006840F00100114948
:10114000086008464068104908400E494860084653
:1011500000680E4908400B4908600846006820F402
:10116000802008600846406820F4FE0048604FF484
:101170001F008860FFF764FF4FF0006004490860BB
:1011800010BD0000001002400000FFF8FFFFF6FE57
:1011900008ED00E0F0B50C46154600220021068C53
:1011A0004FF6FE773E400684028B018C4FF60C769C
:1011B00032407E1C06EA03162E433243104EB042E4
:1011C0000ED0104EB0420BD0B0F1804F08D00E4E72
:1011D000B04205D00D4EB04202D00D4EB04206D105
:1011E0004FF6FD76314044F00106314305E04FF6FD
:1011F000F576314044F00106314302830184F0BDAD
:10120000002C014000340140000400400008004070
:10121000000C0040F0B50C461546002200210026C7
:10122000078C4FF6EF7C07EA0C070784028B018CD2
:101230004FF6FF7707EA041640F6FF473A404FF6AD
:10124000FF7707EA03373A434FF6FF7707EA0527A8
:101250003A43114FB8420ED0104FB8420BD0B0F104
:10126000804F08D00E4FB84205D00E4FB84202D082
:101270000D4FB84206D14FF6DF77394046F01007E0
:10128000394305E04FF65F77394044F010073943A2
:1012900002830184F0BD0000002C014000340140B5
:1012A0000004004000080040000C00402DE9FC4113
:1012B0000221274800F083F8254800F08FF82549DF
:1012C0000880234800F08DF82349088021480088D1
:1012D000002832D01F480088401CFEF7CFFF04468C
:1012E0001D490988491C642201FB02F0FEF7C6FF74
:1012F00005462146FEF784FF184908601548008816
:10130000401CFEF7BBFF044621461548FEF778FF58
:101310001449086008460068FEF7B9FF04460D4608
:101320000E480068FEF7B3FF064632460B460EA095
:10133000CDE9004500F080FB07E000200749086088
:101340000849086010A000F077FBBDE8FC810000B0
:10135000002C01402A000020280000202C00002042
:10136000002474493000002050756C73653A2530B4
:101370002E32662525202020467265713A25302EB2
:101380003266487A0A0000007265736574000000D6
:1013900010B50121064800F027F840B10548006863
:1013A000401C044908600121014800F008F810BD04
:1013B0000010004038000020CA4302827047CA4330
:1013C0000282704721B1028842F00102028004E0EB
:1013D00002884FF6FE731A40028070470146888EDD
:1013E00070470146088F704730B502460020002341
:1013F0000024158A05EA0103958905EA010413B161
:101400000CB1012000E0002030BD1AB183890B43EC
:10141000838102E083898B438381704770B5002408
:1014200000220023058C4FF6FE7635400584028CA1
:101430008388048B4FF68F752C40B51E2C400D8889
:101440002C43751E2A400D892A434D882A43144D8A
:10145000A8420BD0134DA84208D0134DA84205D086
:10146000124DA84202D0124DA84213D14FF6F77583
:101470002A404D892A434FF6FB752A408D882A431E
:101480004FF6FF652B404FF6FF552B408D892B43C0
:10149000CD892B4383800483CD888586028470BDEB
:1014A000002C014000340140004001400044014054
:1014B000004801400A460021018B4FF6F77319409E
:1014C000114301837047000070B5002400220023FF
:1014D000058C4FF6EF7635400584028C8388048BAB
:1014E00048F6FF752C404FF6FF452C400D884FF60F
:1014F000FF7606EA05252C434FF6DF752A400D8955
:1015000006EA05152A434D8806EA05152A43154DB6
:10151000A84202D0144DA8421DD14FF67F752A4033
:101520004D894FF6FF7606EA05152A434FF6BF753B
:101530002A408D8806EA05152A434FF6FF352B40D1
:101540004FF2FF752B408D8906EA85052B43CD8927
:1015500006EA85052B4383800483CD8805870284B2
:1015600070BD0000002C0140003401400A460021FB
:10157000018B4FF2FF7319404FF6FF7303EA02230A
:10158000194301837047000070B500240022002336
:10159000058C4FF6FF6635400584028C8388848B6A
:1015A0004FF68F752C404FF6FC752C400D882C4360
:1015B0004FF6FF552A400D894FF6FF7606EA0525BE
:1015C0002A434D8806EA05252A43154DA84202D034
:1015D000144DA8421DD14FF2FF752A404D894FF698
:1015E000FF7606EA05252A434FF6FF352A408D8807
:1015F00006EA05252A434EF6FF752B404DF6FF758A
:101600002B408D8906EA05152B43CD8906EA051581
:101610002B4383808483CD888587028470BD00003E
:10162000002C0140003401400A460021818B4FF616
:10163000F7731940114381837047000070B5002291
:1016400000230024058C4EF6FF7635400584038C7C
:101650008488828B48F6FF752A404FF6FF452A4062
:101660000D884FF6FF7606EA05252A434DF6FF75ED
:101670002B400D8906EA05352B434D8806EA0535D2
:101680002B430B4DA84202D00A4DA84208D14BF67D
:10169000FF752C408D894FF6FF7606EA85152C43A1
:1016A00084808283CD88A0F84050038470BD000000
:1016B000002C0140003401400A460021818B4FF28A
:1016C000FF7319404FF6FF7303EA02231943818326
:1016D00070472DE9F04105460C4600260127608839
:1016E00008B9022600E00026A088012801D10227BF
:1016F00000E001272088A0B92389A28861882846B4
:10170000FFF748FDE188284600F03CF823893A4677
:1017100031462846FFF77EFDE188284600F03BF879
:1017200013E02389A28861882846FFF773FDE188CA
:10173000284600F030F823893A4631462846FFF71C
:1017400029FDE188284600F01DF8BDE8F0810A4631
:10175000002101894FF68F731940114301817047B1
:1017600002894FF67F731A40028102890A4302817F
:10177000704702894FF6F8731A40028102890A43C2
:1017800002817047028B4FF6F3731A400283028B7B
:101790000A4302837047028B4FF2FF331A400283E1
:1017A000028B4FF6FF7303EA01231A43028370474B
:1017B000002202881D4B98420ED01D4B98420BD040
:1017C000B0F1804F08D01B4B984205D01A4B98427D
:1017D00002D01A4B984204D14FF68F731A404B88AF
:1017E0001A43174B984207D0164B984204D04FF635
:1017F000FF431A40CB881A4302808B8883850B886D
:1018000003850A4B98420BD0094B984208D00E4BE7
:10181000984205D00D4B984202D00D4B984201D111
:101820000B7A03860123838270470000002C01405D
:10183000003401400004004000080040000C00405B
:1018400000100040001400400040014000440140EE
:101850000048014010B540F22551064800F025F837
:1018600038B1044800F0DCF8C4B22146014800F069
:10187000DCF810BD0038014021B1828942F40052E9
:10188000828104E082894DF6FF731A40828170479D
:1018900002460020B1F5007F00D100BF13880B4045
:1018A0000BB1012000E00020704770B50246002413
:1018B00000230025002040F66A16B14200D100BF87
:1018C000C1F3421501F01F03012606FA03F3012DAF
:1018D00002D19689334006E0022D02D1168A3340A8
:1018E00001E0968A33400C12012606FA04F41688A9
:1018F000344013B10CB1012000E0002070BDF0B500
:101900000346002400260025002040F66A17B9424D
:1019100000D100BF1846C1F3421401F01F06012791
:1019200007FA06F5012C01D10C3004E0022C01D19C
:10193000103000E014301AB107682F43076002E04E
:101940000768AF430760F0BD2DE9F04786B0054654
:101950000E460024A24600BFA1460027B08900B170
:1019600000BF2F462C8A4CF6FF700440F0880443D9
:101970002C82AC894EF6F3100440B08831890843BC
:10198000718908430443AC81AC8A4FF6FF400440A0
:10199000B0890443AC8201A8FFF7E8FA1F488742E8
:1019A00002D1DDF810A001E0DDF80CA0A88900F458
:1019B000004040B10AEBCA0000EB0A103168490050
:1019C000B0FBF1F807E00AEBCA0000EB0A1031683F
:1019D0008900B0FBF1F86420B8FBF0F004012009A5
:1019E000642101FB1089A88900F4004040B1322035
:1019F00000EBC900B0FBF1F000F00700044308E081
:101A0000322000EB09106421B0FBF1F000F00F0070
:101A100004432C8106B0BDE8F08700000038014087
:101A200001468888C0F308007047C1F3080282802D
:101A3000704700BFFEE700000FB4054B10B503A9C7
:101A4000044A029800F0CAF810BC5DF814FB0000CC
:101A5000ED2300089800002002E008C8121F08C10A
:101A6000002AFAD170477047002001E001C1121F1F
:101A7000002AFBD1704700002DE9FF5FDDE902205D
:101A8000010DDDF838B0024318D044F61050A1F231
:101A9000FF3141430D140F98012820D0A5EB0B0016
:101AA000401C5FEA000A4FF00004474EDFF81C912B
:101AB000A046504616D5CAF1000728E00F98012429
:101AC00043A2012808D0002100980F9BC0E9002103
:101AD000C0E90243BDE8FF9F6FEA0B01F4E7CBF1D9
:101AE0000000DEE7074612E0F80707D0224633463B
:101AF00040464946FEF703FD804689462246334666
:101B000010461946FEF7FBFC04460E467F10002FD8
:101B1000EAD1DDE90201BAF1000F42464B4602DA92
:101B2000FEF7EDFC01E0FEF75CFD04460E460022E8
:101B3000284BFEF7DDFD03D84FF0FF30014607E0EC
:101B40000022254B20463146FEF732FCFEF7B8FD59
:101B5000102409E0002C0ADB0A220023FEF7C0FB58
:101B6000019B30321A55641E50EA0102F2D1641C06
:101B7000019AC4F1110314440F9A012A03D00122DF
:101B800008430DD10AE0084304D000204FF0110BA8
:101B90000F9080E7A3EB0B056D1E0DE05B4504DDA8
:101BA0004FF0000205F1010504E003DA4FF00002F6
:101BB000A5F10105002AECD000980F99C0E9023187
:101BC000C0E9004586E70000000024400000F03F27
:101BD000300000000000F0430000E03F2DE9FF4F1F
:101BE00095B09B468946064600250FE2252877D109
:101BF00000242746F84A0121059400E0044316F822
:101C0000013F203B01FA03F01042F7D130782A2837
:101C100011D06FF02F033078A0F13002092A16D8C6
:101C2000059A44F0020402EB820203EB42021044E4
:101C3000761C0590EFE759F8042B0592002A03DA89
:101C4000504244F40054059044F00204761C30786D
:101C50002E2816D116F8010F44F004042A280DD0BE
:101C60006FF02F023078A0F13003092B09D807EB71
:101C7000870302EB4303C718761CF3E759F8047B8C
:101C8000761C30786C280FD006DC4C2817D06828DA
:101C90000DD06A2814D104E0742810D07A280FD10E
:101CA0000DE044F400140AE044F4801401E044F42C
:101CB00040147278824202D104F58014761C761C9E
:101CC000307866280BD013DC582877D009DC002840
:101CD00075D04528F6D04628F4D047281AD19DE182
:101CE00018E0632835D0642879D0652812D195E1B1
:101CF000702873D008DC6728F1D069286FD06E286F
:101D00000DD06F2806D1B5E073282CD0752875D07A
:101D1000782874D05A46179990476D1C75E1C4F322
:101D20000250022809D003280DD0D9F80010042849
:101D30000DD00D6009F1040967E1D9F80010EA1728
:101D4000C1E90052F6E7D9F800100D80F2E70D70F6
:101D5000F0E719F8041B8DF8001000208DF8010041
:101D6000EA46012003E059F804AB4FF0FF30610769
:101D70004FF0000102D40DE008F101018846B9429C
:101D80000FDA8045F8DB1AF808100029F4D108E0D2
:101D900008F1010188468142FADB1AF8081000298F
:101DA000F6D105985B46A0EB080721463846179AFE
:101DB00000F094FA284400EB080507E04DE029E123
:101DC0000DE01AF8010B5A4617999047B8F101082F
:101DD000F7D25B4621463846179A13E142E00A22C1
:101DE0000092C4F302524FF0000A022A08D059F8B8
:101DF00004CB032A4FEAEC710AD00DE029E02AE077
:101E000009F1070121F00702F2E802C1914609E059
:101E10000FFA8CFC4FEAEC71042A03D14FFA8CFCC8
:101E20004FEAEC71002907DA0A460021DCF1000CC8
:101E300061EB02012D2202E0220504D52B228DF850
:101E40000420012203E0E20701D02022F7E79046B8
:101E500059E00A2102E010220DE010214FF0000AA3
:101E600000910BE010224FF0000A44F00404082710
:101E7000009203E008224FF0000A0092C4F30252DD
:101E8000022A05D059F804CB0021032A08D009E022
:101E900009F1070121F00702F2E802C1914605E0CD
:101EA0001FFA8CFC042A01D10CF0FF0C4FF0000843
:101EB000220728D5702806D0009B83F0100353EA30
:101EC0000A0305D00EE040228DF80420012208E02C
:101ED0005CEA010206D030228DF804208DF805005E
:101EE00002229046009B83F0080353EA0A030AD1BA
:101EF0005CEA010201D1620705D530228DF8042089
:101F00004FF001087F1E582804D034A003900EA87B
:101F100002900DE036A0F9E753466046009AFEF7BE
:101F2000DFF984460398825C0298401E029002709A
:101F30005CEA0100F0D1029806A9081A00F1200A13
:101F4000600702D524F4803400E00127574502DD04
:101F5000A7EB0A0000E0002000EB0A0100900598C2
:101F60004144401A0590E00306D45B462146179A87
:101F7000059800F0B3F90544002706E001A85A4689
:101F8000C05D179990476D1C7F1C4745F6DBE00349
:101F90000CD55B462146179A059800F09FF9054439
:101FA00004E030205A46179990476D1C0099481E4E
:101FB00000900029F5DC08E0029802995A46007862
:101FC000491C0291179990476D1CBAF10001AAF1C2
:101FD000010AF1DC65E100000928010030313233EB
:101FE0003435363738396162636465660000000055
:101FF000303132333435363738394142434445463F
:102000000000000000F058F90544761C30780028E4
:102010007FF4ECAD19B02846BDE8F08F620700D41C
:10202000062709F1070222F0070CFCE80223E1462B
:1020300003F000485FEA080C02D00FF2702C0DE0AC
:102040005FEA045C02D50FF2682C07E05FEAC47C0B
:1020500002D00FF2602C01E0AFF2700C4FF0FF38AD
:1020600023F00043CDF850C065280CD006DC45288D
:1020700009D046281DD047283DD13DE0662818D01C
:1020800067287ED138E00021112F01DB112000E00C
:10209000781CCDE9000106A90EA8FFF7EDFCDDE9EB
:1020A0000F010E9A03910021009207F1010A049199
:1020B0004DE04FF000400097CDE9011006A90EA8B1
:1020C000FFF7DAFCDDE90F0203920E9B1199002263
:1020D000DDF80CA00093049211B9791C00EB010A01
:1020E000B7EB0A0004D4C0F1FF3007F1010A0490F5
:1020F000AAEB0700019044E0012F00DA012700213C
:10210000112F01DD112000E03846CDE9000106A9BC
:102110000EA8FFF7B1FCDDE90F010E9A0391002133
:1021200004910092BA4621070CD40399514500DA74
:102130008A46BAF1010F05DD009AAAF10101515C4E
:10214000302908D0B84202DA10F1040F06DA012172
:10215000CDE9011015E0AAF10101E9E7002805DC4D
:10216000049901440491AAEB000102E0411C51458D
:1021700000DD8A460499401A401C01904FF000404F
:102180000290200704D40198504501DBCDF804806B
:1021900000208DF84F0002980DF14F07B0F1004F6D
:1021A00025D02B200E9002984FF0020800280CDA60
:1021B000404202902D200E9007E00A210298FEF77F
:1021C00079F83031029007F8011DB8F10001A8F14B
:1021D0000108F2DC02980028EFD1791E0E980870F1
:1021E000307800F0200040F0450007F8020D12A8FA
:1021F000C01B00F107081498007800B1012000EB23
:102200000A01019801EBE07105984144401A401E13
:102210000590E00306D45B462146179A059800F026
:102220005DF805441498007818B15A4617999047FC
:102230006D1CE00324D55B462146179A059800F0F3
:102240004DF805441CE00498002807DBDDE9030194
:10225000884203DD0098405C179901E0179930200F
:102260005A469047049805F10105401C04900198D6
:10227000401E019004D12E205A46179990476D1C9C
:10228000BAF10001AAF1010ADDDC05E017F8010B43
:102290005A46179990476D1CB8F10001A8F1010842
:1022A000F4DC5B462146179A0598ABE62D0000004A
:1022B0002B000000200000002DE9F041044600251D
:1022C0001E461746880404D405E039462020B0474E
:1022D0006D1C641EF9D52846BDE8F0812DE9F0415A
:1022E000044600251E469046C80301D5302700E06D
:1022F0002027880404D505E041463846B0476D1CC8
:10230000641EF9D52846BDE8F081000008B501211A
:102310000420FEF71BFE4FF48070ADF8000004208F
:102320008DF8030069460248FEF706FD08BD00006F
:102330000008014000B587B00121C802FEF706FE83
:1023400040F2E730ADF814004720ADF8100000204F
:10235000ADF81600ADF812008DF8180004A9174862
:10236000FFF726FA0020ADF80400ADF806000120C2
:10237000ADF808000020ADF80A00ADF80C0001A986
:102380000E48FFF7A6F950210C48FFF7E0F90421A9
:102390000A48FFF7EEF980210848FFF7E1F901222A
:1023A00002210648FFF731F802210448FFF707F839
:1023B00001210248FFF706F807B000BD002C0140DC
:1023C00008B54FF4E060FEF7A7FD1B208DF8000074
:1023D00000208DF8010003208DF8020001208DF807
:1023E00003006846FEF760FD08BD000070B50446B6
:1023F0000D46E1B20548FFF718FB00BF80210348F6
:10240000FFF746FA0028F9D0204670BD0038014099
:1024100008B501210420FEF799FD4020ADF8000029
:1024200018208DF8030003208DF8020069461B4830
:10243000FEF782FC01210420FEF788FD8020ADF824
:10244000000018208DF8030003208DF80200694673
:102450001248FEF771FC01210820FEF777FD0120EC
:10246000ADF8000018208DF8030003208DF802005D
:1024700069460B48FEF760FC01210820FEF766FD67
:102480000120ADF8000018208DF8030003208DF81E
:10249000020069460248FEF74FFC08BD00080140F3
:1024A000000C014000B587B001210220FEF73EFD7F
:1024B0000920ADF814004720ADF810000020ADF859
:1024C0001600ADF812008DF8180004A91E48FFF799
:1024D0006FF96020ADF800000120ADF80200002087
:1024E000ADF808000520ADF8060069461648FEF76D
:1024F00095FF08211448FEF7DDFF0420ADF8060023
:1025000069461148FEF7E0FF08210F48FFF72EF853
:102510000320ADF8060069460B48FFF735F808219F
:102520000948FFF781F80220ADF806006946064821
:10253000FFF784F808210448FFF7BEF8012102489C
:10254000FEF740FF07B000BD000400401CB50020AE
:10255000012103464A02CDE9001004A1064800F01B
:10256000A3FC00F003FC00201CBD00005461736B51
:102570002053746172740000C92C00082DE9F041E9
:1025800005460E461C4807681C480068001D00F000
:1025900063FA50B91948006890F82C10012088405F
:1025A00017490968814316480160681C38B936B17B
:1025B00012480168091D134800F08CFA1AE07C19D2
:1025C0000E4800684460BC4207D20C480168091DEF
:1025D0000D48006800F064FA0CE008480168091D25
:1025E0000A48006800F05CFA09480068844201D299
:1025F00007480460BDE8F081580000204400002036
:102600005C000020500100204C0000204800002009
:102610007400002010B5044600F068FA23480068F2
:10262000401C224908602248006840B920480460E4
:102630000846006801280DD100F006F90AE01D489F
:10264000006838B91A480068C06AE16A884201D84F
:102650001748046018480068401C1749086094F83F
:102660002C10012088401549096808431349086067
:10267000E16A01EB8101124A02EB8100211D00F0A9
:1026800029FA00F045FA0B48006868B1084800686C
:10269000C06AE16A884207D24FF080500949086059
:1026A000BFF34F8FBFF36F8F10BD000054000020A9
:1026B0004400002060000020700000205C0000202A
:1026C0009C00002004ED00E010B516E000F00EFACA
:1026D0000C48C068C468201D00F0BEF90A480068B4
:1026E000401E0949086009480068401E0749086003
:1026F00000F00EFA204600F00BF8044800680028AD
:10270000E4D110BD3C010020540000205000002006
:1027100010B50446206B00F00BFA204600F008FAD2
:1027200010BD000030B54FF48843174800F007048F
:102730002CB1C01D20F00700134C041B1B1B0246CC
:10274000124C22600024114D6C60D018083820F023
:1027500007000F4C206000240D4D2D686C600C4D5F
:102760002D682C601146441A4C60094C24680C609A
:10277000084D4C682C60084D4C682C604FF00044AC
:10278000064D2C6030BD0000640100208000002058
:1027900088000020900000208C0000209400002081
:1027A00000BFFFF791FF064800680128F9D94FF0F4
:1027B000805004490860BFF34F8FBFF36F8FF0E77D
:1027C0009C00002004ED00E02DE9FF5F80460E46EE
:1027D0009146DDE90E7A109CA9F10100216B01EB15
:1027E000800B2BF0070B002507E0715D04F134002E
:1027F0004155705D00B902E06D1C102DF5D300BF8E
:10280000002143200155052F00D30427E762201D36
:1028100000F043F904F1180000F03FF92461C7F11A
:102820000500A06164620020606484F848004146AD
:102830005846039A00F0FEF82060BAF1000F01D06C
:10284000CAF80040BDE8FF9F10B5002407E004EB84
:1028500084010F4A02EB810000F012F9641C052C80
:10286000F5D30C4800F00CF90B4800F009F90B48BF
:1028700000F006F90A4800F003F90A4800F000F9F0
:1028800004480949086004480849086010BD000070
:102890009C000020000100201401002028010020DD
:1028A0003C01002050010020480000204C00002086
:1028B00010B50146164800E0006803688B42FBD360
:1028C0000246436813448B4204D143684C68234456
:1028D000436001460A464B6813440468A34211D181
:1028E0000C4C03682468A34208D04B6804686468F1
:1028F00023444B6003681B680B6005E0054B1B68B5
:102900000B6001E003680B60884200D0016010BDDD
:1029100080000020880000200A490968096809B978
:10292000012100E0002121B14FF0FF31064A116082
:1029300006E004490968C968C868034A416811602B
:1029400070470000480000207400002000BF1F20D6
:1029500080F31188BFF34F8FBFF36F8F00BF00BFAD
:10296000FEE700002DE9F04105464FF0000800F0B9
:102970002FFA2B48006808B9FFF7D4FE29480068F1
:102980002840002847D145B1083505F0070020B19F
:1029900005F00700C0F108000544002D3BD0224897
:1029A0000068854237D8214E3046046801E026464B
:1029B00024686068A84202D220680028F7D118482D
:1029C0000068844227D0306800F108082068306031
:1029D0006068401B102807D967196068401B786041
:1029E00065603846FFF764FF0F4960680968081A98
:1029F0000D490860084600680D490968884203D2FD
:102A0000094800680A49086006496068096808437F
:102A100060600020206000F005FB4046BDE8F081CA
:102A200088000020940000208C00002080000020FE
:102A300090000020001F4FF080730360001F21F002
:102A400001030360001F034B036014380260203849
:102A5000704700004D29000801460A69D1E901309C
:102A60009860D1E9010358605068884201D18868B4
:102A70005060002008611068401E106010687047A8
:102A800000F1080141604FF0FF31816000F1080161
:102A9000C160016100210160704700210161704740
:102AA00010B502460B685C1C0CB9106907E002F116
:102AB000080000E04068446824689C42FAD94468F1
:102AC0004C604C68A160886041600A611468641CB5
:102AD000146010BD42684A6093688B6093685960C7
:102AE0009160086103685B1C0360704700BF1F2092
:102AF00080F31188BFF34F8FBFF36F8F00BF034880
:102B00000068401C01490860704700004000002038
:102B100006480068401E054908600846006820B95C
:102B2000002080F3118800BF00BF704740000020E4
:102B300070B506463546D6B1083D2C460C4960684E
:102B40000968084098B1206888B90949606809682F
:102B50008843606000F03CF90649606809680844F1
:102B6000044908602046FFF7A3FE00F05BFA70BD41
:102B7000940000208C00002000204FF0E02108612C
:102B80008861024848610720086170473F190100C9
:102B900070B50446002544B100F01AF90021204622
:102BA000FFF7ECFC00F03EFA05463DB94FF08050CF
:102BB00003490860BFF34F8FBFF36F8F70BD0000F4
:102BC00004ED00E070B50546FFF790FF15B9274802
:102BD000006800E028460446201DFFF73DFF78B955
:102BE000E06A00EB8000224951F8200040B994F8D7
:102BF0002C10012088401F49096881431D4801604D
:102C0000A06A18B104F11800FFF726FF1A480068FF
:102C1000401C1949086015480068844209D1211DEB
:102C20001648FFF757FF16480068401C1449086013
:102C300009E014480068401E124908602046FFF76A
:102C400067FDFFF769FEFFF763FF0F48006858B1A3
:102C500006480068844207D14FF080500B49086055
:102C6000BFF34F8FBFF36F8F70BD00004400002093
:102C70009C0000205C000020700000203C0100202F
:102C800050000020540000206000002004ED00E00F
:102C900006E00020FDF710FF4FF4FA70FFF778FF11
:102CA000F7E706E00120FDF707FF4FF4FA70FFF7A2
:102CB0006FFFF7E706E00220FDF7FEFE4FF4FA7023
:102CC000FFF766FFF7E700001CB504464FF44071BC
:102CD00001F00702174B18684FF6FF031840164B18
:102CE000034343EA0220134B186000BFFEF7BCF811
:102CF0000020012103464A02CDE900100FA112482D
:102D000000F0D2F80020012103464A02CDE900106C
:102D10000EA1114800F0C8F80020012103464A0224
:102D2000CDE900100DA1104800F0BEF80020FFF71B
:102D300049FF1CBD0CED00E00000FA055461736B07
:102D4000204C656431000000912C00085461736BC5
:102D5000204C656432000000A32C00085461736BA2
:102D6000204C656433000000B52C00081CB51148E8
:102D700000210B468022CDE900100FA1104800F081
:102D800093F80446012C14D100BF1F2080F3118852
:102D9000BFF34F8FBFF36F8F00BF4FF0FF30094974
:102DA000086001200849086000200849086000F018
:102DB00047F81CBD7800002049444C450000000045
:102DC000A1270008740000206000002058000020A7
:102DD00002480068401C0149086070477C000020E0
:102DE0001248006818B10120114908601DE0002058
:102DF0000F4908600F480068B0FA80F0C0F11F0169
:102E000001EB81020C4B03EB820042685268426086
:102E100000F108024368934202D14268526842605E
:102E20004268D268054B1A6000BF70477C000020E2
:102E3000680000205C0000209C000020440000206E
:102E400010B50A48006840F47F0008490860084649
:102E5000006840F07F400860FFF78EFE00200449C4
:102E60000860FDF781F9002010BD000020ED00E0B2
:102E70004000002010B500BF1F2080F31188BFF371
:102E80004F8FBFF36F8F00BF00F03EF818B14FF0C7
:102E900080500449086000BF002080F3118800BF03
:102EA00010BD000004ED00E02DE9FF4F85B0804625
:102EB00089461746DDE912ABB800FFF753FD064619
:102EC00056B14C20FFF74EFD04460CB1266304E0DA
:102ED0003046FFF72DFE00E000247CB10020CDE954
:102EE00000ABCDE902403A4649464046089BFFF711
:102EF0006BFC2046FFF78EFB012501E04FF0FF350C
:102F0000284609B0BDE8F08F2DE9F04100273A4886
:102F10000068002863D139480068451C37480560BF
:102F20008DB93748D0F800803648006834490860C9
:102F30003448C0F8008034480068401C32490860BA
:102F4000FFF7EAFC00BF3148006885423BD300BF71
:102F50002B480068006808B9012000E0002020B17B
:102F60004FF0FF30294908602CE025480068C06810
:102F7000C4686668B54202D22448066022E0201D7B
:102F8000FFF76AFDA06A18B104F11800FFF764FDAD
:102F900094F82C10012088401D49096808431C49F9
:102FA0000860E16A01EB81011A4A02EB8100211DF0
:102FB000FFF790FD1849E06A0968C96A8842C7D3DB
:102FC0000127C5E700BF14480068C06A00EB800015
:102FD000104951F82000012800D9012704E00F48CA
:102FE0000068401C0D4908600D48006800B10127C9
:102FF0003846BDE8F08100007C0000205800002029
:10300000480000204C0000206C00002074000020CC
:103010005C0000209C000020440000206400002090
:103020006800002070B500240026FFF75FFD2E48E1
:103030000068401E2C4908600846006800284FD1EF
:103040002A48006800284BD024E02948C068C4689A
:1030500004F11800FFF700FD201DFFF7FDFC94F8B8
:103060002C10012088402349096808432149086041
:10307000E16A01EB8101204A02EB8100211DFFF78B
:1030800029FD1E49E06A0968C96A884202D3012005
:103090001B4908601648006808B9012000E00020BC
:1030A0000028D2D00CB1FFF737FC1648056865B18F
:1030B00000BFFFF729FF10B10120114908606D1E04
:1030C000002DF6D100200F4908600D48006838B186
:1030D000012630070C490860BFF34F8FBFF36F8F95
:1030E000FFF716FD304670BD7C0000205400002024
:1030F000280100205C0000209C00002044000020EB
:10310000680000206400002004ED00E00008014099
:1031100004000000000C0140080000000010014005
:1031200010000000001401402000000000180140C1
:1031300040000000001C0140800000000020014011
:103140000001000064310008000000209C00000025
:10315000581A0008003200089C000020CC480000EB
:10316000681A000800A24A040000000000000000E5
:10317000010203040607080900000000010203041D
:103180000102030406070809020406080000000003
:10319000000000000000000000000000000000002F
:1031A00000000000AAAAAAAA000000000000000077
:1031B000000000000000000000000000000000000F
:1031C00000000000000000000000000000000000FF
:1031D00000000000000000000000000000000000EF
:1031E00000000000000000000000000000000000DF
:1031F00000000000000000000000000000000000CF
:04000005080001DD11
:00000001FF
