:020000040800F2
:100000000004002045010008D3020008CB020008CC
:10001000CF0200088D010008250400080000000040
:10002000000000000000000000000000D7020008EF
:100030009101000800000000D5020008C10300087B
:100040005F0100085F0100085F0100085F01000810
:100050005F0100085F0100085F0100085F01000800
:100060005F0100085F0100085F0100085F010008F0
:100070005F0100085F0100085F0100085F010008E0
:100080005F0100085F0100085F0100085F010008D0
:100090005F0100085F0100085F0100085F010008C0
:1000A0005F0100085F0100085F0100085F010008B0
:1000B0005F0100085F0100085F0100085F010008A0
:1000C0005F0100085F0100085F0100085F01000890
:1000D0005F0100085F0100085F0100085F01000880
:1000E0005F0100085F0100085F0100085F01000870
:1000F0005F0100085F0100085F0100085F01000860
:100100005F0100085F0100085F0100085F0100084F
:100110005F0100085F0100085F0100085F0100083F
:100120005F0100085F0100085F0100085F0100082F
:10013000DFF80CD000F018F8004800474904000828
:10014000000400200648804706480047FEE7FEE717
:10015000FEE7FEE7FEE7FEE7FEE7FEE7FEE7FEE777
:10016000C503000831010008064C074D06E0E068B1
:1001700040F0010394E8070098471034AC42F6D3EE
:10018000FFF7DAFF780400088804000800BFFEE7E4
:10019000704701B502E00098401E009000980028CA
:1001A000F9D108BD10B5044614B900F00DF801E00E
:1001B00000F002F810BD000010B50121014800F068
:1001C00080F810BD0010014010B50121014800F079
:1001D0007AF810BD0010014010B50121014800F06F
:1001E00072F810BD000C014010B50121014800F06B
:1001F00068F810BD000C014010B58021014800F0E6
:1002000062F810BD001C014010B58021014800F0CB
:1002100058F810BD001C014010B54FF48071024821
:1002200000F051F810BD0000001C014010B54FF463
:100230008071024800F045F810BD0000001C01402C
:1002400010B5FFF7C9FFFFF7D7FFFFF7E5FF10BDB8
:1002500010B5FFF7C9FFFFF7D7FFFFF7E7FF10BDA6
:1002600070B504460D46ADB934B1012C07D0022C4F
:1002700008D0032C0CD108E0FFF7B6FF09E0FFF728
:10028000C3FF06E0FFF7D2FF03E0FFF7E1FF00E066
:1002900000BF15E034B1012C07D0022C08D0032C8C
:1002A0000CD108E0FFF798FF09E0FFF7A5FF06E093
:1002B000FFF7B2FF03E0FFF7C3FF00E000BF00BF9E
:1002C00070BD416170470161704700BFFEE700BF2C
:1002D000FEE770477047704710B500F001F810BD99
:1002E0000CB50020019000903348006840F4803045
:1002F0003149086000BF3048006800F400300090C9
:100300000198401C0190009818B90198B0F5A06FB1
:10031000F1D12948006800F4003010B101200090AC
:1003200001E0002000900098012843D12348006894
:1003300040F01000214908600846006820F00300E2
:1003400008600846006840F0020008601A484068EB
:10035000194948600846406848600846406840F4CB
:10036000806048600846406820F47C104860084679
:10037000406840F4E81048600846006840F080702B
:10038000086000BF0C48006800F000700028F9D039
:100390000948406820F00300074948600846406863
:1003A00040F00200486000BF0348406800F00C00C5
:1003B0000828F9D10CBD00000010024000200240C6
:1003C0007047000010B51348006840F00100114963
:1003D000086008464068104908400E4948600846D1
:1003E00000680E4908400B4908600846006820F480
:1003F000802008600846406820F4FE0048604FF402
:100400001F008860FFF768FF4FF000600449086034
:1004100010BD0000001002400000FFF8FFFFF6FED4
:1004200008ED00E000BFFEE702E008C8121F08C1A7
:10043000002AFAD170477047002001E001C1121F65
:10044000002AFBD17047000013E000210320FFF7D2
:1004500007FF0020FFF7A6FE0648FFF79AFE0121DE
:100460000320FFF7FDFE0120FFF79CFE0148FFF788
:1004700090FEEAE7FFFF0F0088040008000000205C
:0804800000040000380400082C
:0400000508000145A9
:00000001FF
