:020000040800F2
:10000000180400204501000819080008E707000847
:100010001508000805020008190A00080000000081
:10002000000000000000000000000000C5080008FB
:100030000902000800000000A1080008B10900083A
:100040005F0100085F0100085F0100085F01000810
:100050005F0100085F010008950500085F010008C6
:100060005F0100085F0100085F0100085F010008F0
:100070005F0100085F0100085F0100085F010008E0
:100080005F0100085F0100085F0100085F010008D0
:100090005F0100085F0100085F0100085F010008C0
:1000A0005F0100085F0100085F0100085F010008B0
:1000B0005F0100085F0100085F0100085F010008A0
:1000C0005F0100085F0100085F0100085F01000890
:1000D0005F0100085F0100085F0100085F01000880
:1000E0005F0100085F0100085F0100085F01000870
:1000F0005F0100085F0100085F0100085F01000860
:100100005F0100085F0100085F0100085F0100084F
:100110005F0100085F0100085F0100085F0100083F
:100120005F0100085F0100085F0100085F0100082F
:10013000DFF80CD000F054F800480047C90A000866
:10014000180400200648804706480047FEE7FEE7FF
:10015000FEE7FEE7FEE7FEE7FEE7FEE7FEE7FEE777
:10016000B90900083101000840EA01039B0703D0E8
:1001700009E008C9121F08C0042AFAD203E011F8E6
:10018000013B00F8013B521EF9D27047D2B201E0A8
:1001900000F8012B491EFBD270470022F6E710B58C
:1001A00013460A4604461946FFF7F0FF204610BDE5
:1001B000421C10F8011B0029FBD1801A704702462F
:1001C000C9B200E0401C0378002BFBD102E00378A9
:1001D0008B4203D0401E9042F9D2002070470000AD
:1001E000064C074D06E0E06840F0010394E8070084
:1001F00098471034AC42F6D3FFF79EFF280B000857
:10020000480B000800BFFEE77047000070B50446C9
:1002100000F03AFC054604B103E0622105A000F0BD
:100220000CFC01E000F0DDFA284600F033FCA042AF
:10023000F8D370BD2E2E5C536F757263655C636F6F
:100240006D6D6F6E5C636F6D6D6F6E2E6300000081
:1002500008B50121102000F025FB0120ADF80000B9
:1002600010208DF8030003208DF802006946044831
:1002700000F028FA0121024800F0AFFA08BD0000A2
:10028000001001401CB50121084600F00BFB0021C5
:10029000084600F0F7F90120009000208DF80400D6
:1002A00008208DF8050001208DF80600684600F052
:1002B0009FF91CBD10B504220121044800F05AF832
:1002C00000F006F8FFF7DEFF10BD00000008014057
:1002D00008B54FF4C06000F0D9FA06208DF8000090
:1002E00001208DF801008DF802008DF803006846AA
:1002F00000F094FA08BD00002DE9F84306460F46C9
:10030000144698464FF00009002500BF0BE018483E
:1003100050F83500B04205D1154800EBC500D0F8C3
:10032000049002E06D1C072DF1D300BF0121484667
:1003300000F0B8FAADF800708DF8034003208DF896
:1003400002006946304600F0BDF9142C01D0102C93
:100350000BD1B8F1000F04D03946304600F03FFA17
:1003600003E03946304600F038FABDE8F883000073
:10037000F00A000870B504460D46164600233246C2
:1003800029462046FFF7B8FF70BD2DE9F04104462D
:100390000D4616461F463B46324629462046FFF785
:1003A000ABFFBDE8F081000010B50121014800F06D
:1003B00016FA10BD000C014010B50121014800F0F3
:1003C0000CFA10BD000C014010B58021014800F06E
:1003D00006FA10BD001C014010B58021014800F054
:1003E000FCF910BD001C014010B54FF480710248AB
:1003F00000F0F5F910BD0000001C014010B54FF4ED
:100400008071024800F0E9F910BD0000001C0140B5
:1004100010B5FFF7C9FFFFF7D7FFFFF7E5FF10BDE6
:1004200010B5FFF7C9FFFFF7D7FFFFF7E7FF10BDD4
:1004300070B504460D46ADB934B1012C07D0022C7D
:1004400008D0032C0CD108E0FFF7B6FF09E0FFF756
:10045000C3FF06E0FFF7D2FF03E0FFF7E1FF00E094
:1004600000BF15E034B1012C07D0022C08D0032CBA
:100470000CD108E0FFF798FF09E0FFF7A5FF06E0C1
:10048000FFF7B2FF03E0FFF7C3FF00E000BF00BFCC
:1004900070BD000010B50023102201210E48FFF7A7
:1004A00074FF0023102280210C48FFF76EFF002309
:1004B000102211010948FFF768FF0121064800F0EA
:1004C0008EF98021054800F08AF94FF480710348C5
:1004D00000F085F910BD0000000C0140001C014037
:1004E00020B1012809D0022815D10DE00B49096877
:1004F00081F00101094A11600EE00949096881F0A3
:100500008001074A116007E00549096881F480719C
:10051000034A116000E000BF00BF70470C0C0140AF
:100520000C1C0140F0B50346174800684FF47A717F
:10053000B0FBF1F000FB03F42146B1F1807F01D361
:1005400001201DE021F07F40401E4FF0E02250616D
:1005500050170F22002807DA15072F0E0B4D00F059
:100560000F06361FAF5503E015072E0E084D2E540B
:1005700000BF00204FF0E0229061072010610020B2
:1005800008B100BFFEE7F0BD0000002018ED00E05C
:1005900000E400E010B50BE00020FFF7A1FF012010
:1005A000FFF79EFF0220FFF79BFF012000F006F8F7
:1005B000012000F009F80028EED110BD01490860C3
:1005C0007047000014040140014600200022074B40
:1005D0001B6803EA0102054B14331B680B4013B17F
:1005E0000AB1012000E00020704700000004014033
:1005F000002123498279002A3AD00A46126803680A
:100600009A430B461A600A1D126803689A430B1D31
:100610001A60027911440A6803681A430A60184A8A
:100620000832126803689A43154B08331A601A1D82
:10063000126803689A43124B0C331A604279102AED
:100640000ED11A1F126803681A430D4B08331A6043
:100650001A1D126803681A43094B0C331A600DE027
:100660000749427911440A6803681A430A6005E0A1
:10067000027911440A6803689A430A6070470000CF
:100680000004014030B500228B071C0F0F2303FA32
:1006900004F20B4B8C1053F824309343084C8D100C
:1006A00044F8253023468C1053F824308C07240F4F
:1006B00000FA04F42343024C8D1044F8253030BD79
:1006C000080001402DE9F0410246002500260020E7
:1006D00000230024002791F803C00CF00F0591F8C7
:1006E00003C00CF0100CBCF1000F03D091F802C055
:1006F0004CEA050591F800C0BCF1000F31D0146838
:1007000000202BE04FF0010C0CFA00F3B1F800C010
:100710000CEA03069E4220D183004FF00F0C0CFA26
:1007200003F7BC4305FA03FC4CEA040491F803C048
:10073000BCF1280F06D14FF0010C0CFA00FCC2F8F6
:1007400014C00AE091F803C0BCF1480F05D14FF086
:10075000010C0CFA00FCC2F810C0401C0828D1D3D0
:100760001460B1F800C0BCF1FF0F34DD5468002004
:100770002EE000F1080C4FF0010808FA0CF3B1F874
:1007800000C00CEA03069E4221D183004FF00F0CFB
:100790000CFA03F7BC4305FA03FC4CEA040491F895
:1007A00003C0BCF1280F05D100F1080C08FA0CF8C1
:1007B000C2F8148091F803C0BCF1480F07D100F1D2
:1007C000080C4FF0010808FA0CF8C2F81080401C21
:1007D0000828CED35460BDE8F081416170470161C3
:1007E000704730BF704700BFFEE710B500F006F855
:1007F00000F00FF800F001F810BD704710B50520AB
:10080000FFF790FEFFF746FEFFF722FDFFF752FDD0
:1008100010BD704700BFFEE77047000070B50021B3
:1008200000230F22C47804B3154C246804F4E06458
:10083000C4F5E064210AC1F10403CA40447804FA13
:1008400003F184781440214309010E4C0678A15528
:10085000047804F01F050124AC4005786D11AD004B
:1008600005F1E025C5F8004109E0047804F01F0512
:100870000124AC40044D0678761145F8264070BD41
:100880000CED00E000E400E080E100E002490143FB
:10089000024A1160704700000000FA050CED00E00C
:1008A0007047000029B1064A92690243044B9A61DD
:1008B00004E0034A92698243014B9A617047000049
:1008C00000100240704710B500F002F810BD0000A3
:1008D0000CB50020019000903348006840F480304F
:1008E0003149086000BF3048006800F400300090D3
:1008F0000198401C0190009818B90198B0F5A06FBC
:10090000F1D12948006800F4003010B101200090B6
:1009100001E0002000900098012843D1234800689E
:1009200040F01000214908600846006820F00300EC
:1009300008600846006840F0020008601A484068F5
:10094000194948600846406848600846406840F4D5
:10095000806048600846406820F47C104860084683
:10096000406840F4E81048600846006840F0807035
:10097000086000BF0C48006800F000700028F9D043
:100980000948406820F0030007494860084640686D
:1009900040F00200486000BF0348406800F00C00CF
:1009A0000828F9D10CBD00000010024000200240D0
:1009B00010B500F081F810BD10B51348006840F084
:1009C00001001149086008464068104908400E4976
:1009D0004860084600680E4908400B490860084610
:1009E000006820F4802008600846406820F4FE007B
:1009F00048604FF41F008860FFF765FF4FF000600C
:100A00000449086010BD0000001002400000FFF81B
:100A1000FFFFF6FE08ED00E000BFFEE702E008C8B9
:100A2000121F08C1002AFAD170477047002001E068
:100A300001C1121F002AFBD17047F0B58DB00546E9
:100A40000E46302101A8FFF7A8FB002400275C21F7
:100A50002846FFF7B4FB04460DB90DB0F0BD84B1D4
:100A6000641C2046FFF7A4FB0746282F00D3282745
:100A700001208DF8040002963A46214603A8FFF7AC
:100A800073FB00BFE9E70000014800687047000001
:100A900014000020014607480068884203D3054837
:100AA0000068401A7047C1F1FF30024A12681044D2
:100AB000401CF7E71400002002480068401D01496F
:100AC0000860704714000020FFF78FFE0FE0002140
:100AD0000320FFF7ADFC4FF4FA70FFF797FB0121FD
:100AE0000320FFF7A5FC4FF4FA70FFF78FFBEEE74A
:100AF0000008014004000000000C01400800000054
:100B0000001001401000000000140140200000000F
:100B10000018014040000000001C0140800000005F
:100B20000020014000010000480B000800000020E8
:100B3000180000001C0A0008600B000818000020C4
:100B4000000400002C0A000800A24A040000000073
:100B5000000000000102030406070809000000006D
:0400000508000145A9
:00000001FF
