:020000040800F2
:100000000004002045010008F7050008CB050008A2
:10001000F30500088D010008F1070008000000004A
:10002000000000000000000000000000A106000821
:1000300091010008000000007D0600088D070008FF
:100040005F0100085F0100085F0100085F01000810
:100050005F0100085F0100087D0300085F010008E0
:100060005F0100085F0100085F0100085F010008F0
:100070005F0100085F0100085F0100085F010008E0
:100080005F0100085F0100085F0100085F010008D0
:100090005F0100085F0100085F0100085F010008C0
:1000A0005F0100085F0100085F0100085F010008B0
:1000B0005F0100085F0100085F0100085F010008A0
:1000C0005F0100085F0100085F0100085F01000890
:1000D0005F0100085F0100085F0100085F01000880
:1000E0005F0100085F0100085F0100085F01000870
:1000F0005F0100085F0100085F0100085F01000860
:100100005F0100085F0100085F0100085F0100084F
:100110005F0100085F0100085F0100085F0100083F
:100120005F0100085F0100085F0100085F0100082F
:10013000DFF80CD000F018F800480047130800085A
:10014000000400200648804706480047FEE7FEE717
:10015000FEE7FEE7FEE7FEE7FEE7FEE7FEE7FEE777
:100160009107000831010008064C074D06E0E068E1
:1001700040F0010394E8070098471034AC42F6D3EE
:10018000FFF7DAFF540800086408000800BFFEE724
:100190007047000008B50121102000F071FA01201D
:1001A000ADF8000010208DF8030003208DF8020048
:1001B0006946044800F07AF90121024800F001FA8A
:1001C00008BD0000001001401CB50121084600F0E8
:1001D00057FA0021084600F049F90120009000205C
:1001E0008DF8040008208DF8050001208DF8060028
:1001F000684600F0F1F81CBD10B504220121044846
:1002000000F05AF800F006F8FFF7DEFF10BD00001E
:100210000008014008B54FF4C06000F025FA062040
:100220008DF8000001208DF801008DF802008DF896
:100230000300684600F0E0F908BD00002DE9F8432E
:1002400006460F46144698464FF00009002500BFA9
:100250000BE0184850F83500B04205D1154800EBC6
:10026000C500D0F8049002E06D1C072DF1D300BF4B
:100270000121484600F004FAADF800708DF8034003
:1002800003208DF802006946304600F00FF9142C67
:1002900001D0102C0BD1B8F1000F04D039463046F4
:1002A00000F091F903E03946304600F08AF9BDE8E4
:1002B000F88300001C08000870B504460D46164679
:1002C0000023324629462046FFF7B8FF70BD2DE9CE
:1002D000F04104460D4616461F463B463246294627
:1002E0002046FFF7ABFFBDE8F081000010B500230A
:1002F000102201210E48FFF7EAFF0023102280217F
:100300000C48FFF7E4FF0023102211010948FFF712
:10031000DEFF0121064800F056F98021054800F073
:1003200052F94FF48071034800F04DF910BD000000
:10033000000C0140001C014020B1012809D0022816
:1003400015D10DE00B49096881F00101094A1160DE
:100350000EE00949096881F08001074A116007E051
:100360000549096881F48071034A116000E000BF0B
:1003700000BF70470C0C01400C1C014010B50BE095
:100380000020FFF7D9FF0120FFF7D6FF0220FFF77B
:10039000D3FF012000F006F8012000F009F8002842
:1003A000EED110BD014908607047000014040140FF
:1003B000014600200022074B1B6803EA0102054B9F
:1003C00014331B680B4013B10AB1012000E0002078
:1003D0007047000000040140002123498279002A6F
:1003E0003AD00A46126803689A430B461A600A1DFF
:1003F000126803689A430B1D1A60027911440A6857
:1004000003681A430A60184A0832126803689A435C
:10041000154B08331A601A1D126803689A43124B71
:100420000C331A604279102A0ED11A1F1268036821
:100430001A430D4B08331A601A1D126803681A43D9
:10044000094B0C331A600DE00749427911440A68E0
:1004500003681A430A6005E0027911440A680368D8
:100460009A430A60704700000004014030B5002242
:100470008B071C0F0F2303FA04F20B4B8C1053F85D
:1004800024309343084C8D1044F8253023468C10BB
:1004900053F824308C07240F00FA04F42343024C51
:1004A0008D1044F8253030BD080001402DE9F041A1
:1004B000024600250026002000230024002791F892
:1004C00003C00CF00F0591F803C00CF0100CBCF148
:1004D000000F03D091F802C04CEA050591F800C066
:1004E000BCF1000F31D0146800202BE04FF0010C5C
:1004F0000CFA00F3B1F800C00CEA03069E4220D1CA
:1005000083004FF00F0C0CFA03F7BC4305FA03FC11
:100510004CEA040491F803C0BCF1280F06D14FF057
:10052000010C0CFA00FCC2F814C00AE091F803C0F8
:10053000BCF1480F05D14FF0010C0CFA00FCC2F8D9
:1005400010C0401C0828D1D31460B1F800C0BCF121
:10055000FF0F34DD546800202EE000F1080C4FF04E
:10056000010808FA0CF3B1F800C00CEA03069E4239
:1005700021D183004FF00F0C0CFA03F7BC4305FAAE
:1005800003FC4CEA040491F803C0BCF1280F05D128
:1005900000F1080C08FA0CF8C2F8148091F803C0B6
:1005A000BCF1480F07D100F1080C4FF0010808FA20
:1005B0000CF8C2F81080401C0828CED35460BDE867
:1005C000F081416170470161704700BFFEE710B5DF
:1005D00000F006F800F00CF800F001F810BD7047CC
:1005E00010B5FFF783FEFFF7D5FDFFF705FE10BD41
:1005F000704700BFFEE7704770B5002100230F224F
:10060000C47804B3154C246804F4E064C4F5E064D1
:10061000210AC1F10403CA40447804FA03F1847842
:100620001440214309010E4C0678A155047804F0CA
:100630001F050124AC4005786D11AD0005F1E025E2
:10064000C5F8004109E0047804F01F050124AC401E
:10065000044D0678761145F8264070BD0CED00E09B
:1006600000E400E080E100E002490143024A116039
:10067000704700000000FA050CED00E07047000034
:1006800029B1064A92690243044B9A6104E0034A85
:1006900092698243014B9A6170470000001002404A
:1006A000704710B500F002F810BD00000CB5002036
:1006B000019000903348006840F480303149086070
:1006C00000BF3048006800F4003000900198401CE2
:1006D0000190009818B90198B0F5A06FF1D12948A0
:1006E000006800F4003010B10120009001E000200B
:1006F00000900098012843D12348006840F0100082
:10070000214908600846006820F003000860084698
:10071000006840F0020008601A48406819494860C3
:100720000846406848600846406840F48060486079
:100730000846406820F47C1048600846406840F451
:10074000E81048600846006840F08070086000BF0C
:100750000C48006800F000700028F9D00948406893
:1007600020F00300074948600846406840F0020056
:10077000486000BF0348406800F00C000828F9D129
:100780000CBD000000100240002002407047000035
:1007900010B51348006840F0010011490860084690
:1007A0004068104908400E494860084600680E49F4
:1007B00008400B4908600846006820F48020086063
:1007C0000846406820F4FE0048604FF41F0088602F
:1007D000FFF767FF4FF000600449086010BD00009C
:1007E000001002400000FFF8FFFFF6FE08ED00E0F9
:1007F00000BFFEE702E008C8121F08C1002AFAD1B4
:1008000070477047002001E001C1121F002AFBD190
:100810007047FFF7DCFE00BFFEE700000008014064
:1008200004000000000C014008000000001001401E
:1008300010000000001401402000000000180140DA
:1008400040000000001C014080000000002001402A
:1008500000010000640800080000002000040000FF
:040860000408000880
:0400000508000145A9
:00000001FF
